S21400000000000000000000000000000000000000EB
S21400001000000000000000000000000000000000DB
S21400002000000000000000000000000000000000CB
S21400003000000000000000000000000000000000BB
S214000400040000005030D084000000005030D004BB
S2140004105030D08480002AD52034D0D0505020349C
S214000420E0E4A0D0B4E4B0B034B0B03464B0B034DB
S214000430B0B0040434E0E4D0843460E45084346023
S214000440E45084B05030A00000000000000000001F
S2140004500000000000000000000000000000000097
S2140004600000000000000000000000000000000087
S2140004700000000000000000000000000000000077
S2140004800000000000000000000000000000000067
S804000000FB